:100000000C9434000C9449000C9449000C94490061
:100010000C9449000C9449000C9449000C9449003C
:100020000C9449000C9449000C9449000C9449002C
:100030000C9449000C9449000C9449000C9449001C
:100040000C9449000C9449000C9449000C9449000C
:100050000C9449000C9449000C9449000C944900FC
:100060000C9449000C94490011241FBECFEFD4E03A
:10007000DEBFCDBF11E0A0E0B1E0E6E2F2E002C0F9
:1000800005900D92A230B107D9F70E94CF000C94D1
:1000900011010C94000080E28093B8001092B90026
:1000A000089584EA8093BC008091BC0087FFFCCF58
:1000B0008091B900887F8830D9F7089584EA8093C9
:1000C000BC008091BC0087FFFCCF8091B900887F85
:1000D0008031D9F7089584E98093BC008091BC00F9
:1000E00084FFFCCF08958093BB0084E88093BC001C
:1000F0008091BC0087FFFCCF8091B900887F883158
:10010000D9F708958093BB0084E88093BC00809168
:10011000BC0087FFFCCF8091B900887F8832D9F777
:1001200008958093BB0084E88093BC008091BC005C
:1001300087FFFCCF8091B900887F8034D9F708957C
:1001400020E030E090E028173907BCF44FE758E38F
:1001500061E0415050406040E1F700C000002D9A3E
:100160004FE758E361E0415050406040E1F700C084
:1001700000002D982F5F3F4FE6CF089584E88093CD
:10018000BC008091BC0087FFFCCF8091B900887FC4
:100190008835D9F78091BB0090E00C94A000259A97
:1001A0000E944B00CAE00E945100809101010E9410
:1001B0007300809100010E9482000E946B002FEF6B
:1001C00089E698E1215080409040E1F700C00000AE
:1001D0000E945100809101018F5F0E9491000E9456
:1001E000BE000E946B002FEF89E698E1215080400D
:1001F0009040E1F700C00000809100018F5F6C2FFC
:100200000E94050190930001CECF991B79E004C0B4
:10021000991F961708F0961B881F7A95C9F7809545
:060220000895F894FFCFE1
:020226000128AD
:00000001FF
